:020000040800F2
:100000008843012025ED0008AF0E000817100008F6
:10001000131100082F1100084B1100080000000008
:100020000000000000000000000000006711000850
:1000300083110008000000007FF00008E3EF0008D3
:1000400049ED000849ED000849ED000849ED0008B8
:1000500049ED000849ED000849ED000849ED0008A8
:1000600049ED000849ED000849ED000849ED000898
:1000700049ED000849ED000849ED000849ED000888
:1000800049ED000849ED000849ED000849ED000878
:10009000E502000849ED000849ED000849ED0008B7
:1000A00049ED0008310A000849ED000849ED000853
:1000B000B3090008C70A0008F90A000849ED00085A
:1000C00049ED000849ED000849ED000849ED000838
:1000D00049ED00087F0B0008290D0008B9DD000874
:1000E00049ED000849ED000849ED000849ED000818
:1000F000630A000849ED000849ED000849ED0008D1
:1001000049ED000849ED0008950A000849ED00088E
:1001100067DE0008F70D000849ED000849ED00080A
:1001200049ED000849ED000849ED000849ED0008D7
:1001300049ED000849ED000849ED000849ED0008C7
:100140008508000849ED000849ED000849ED000860
:1001500049ED000849ED0008C78B00083F7E000804
:1001600049ED000849ED000849ED000849ED000897
:1001700049ED000849ED000849ED000849ED000887
:1001800049ED000849ED000800F002F800F061F8C0
:100190000AA090E8000C82448344AAF10107DA45E2
:1001A00001D100F056F8AFF2090EBAE80F0013F0D3
:1001B000010F18BFFB1A43F00103184764930100B5
:1001C000849301000A444FF0000C10F8013B13F037
:1001D000070408BF10F8014B1D1108BF10F8015BA0
:1001E000641E05D010F8016B641E01F8016BF9D193
:1001F00013F0080F1EBF10F8014BAD1C0C1B09D1EA
:100200006D1E58BF01F801CBFAD505E014F8016B5B
:1002100001F8016B6D1EF9D59142D6D370470000ED
:100220000023002400250026103A28BF78C1FBD8FF
:10023000520728BF30C148BF0B607047642915F0D2
:100240001F82002070471FB518F085FA1FBD10B53A
:1002500010BD15F063FC1146FFF7F5FF00F01CF828
:1002600015F081FC03B4FFF7F2FF03BC15F084FC2A
:10027000184800686421B0FBF1F420460EF0C2FE7D
:100280000FF0A6FC04F0EAF900BF00231A46012192
:10029000184611F0B5FDF8E710B586B000BF0EF0B6
:1002A00015FF0FF090FB032000214FF480720A4BE2
:1002B000CDE90132CDE903100A200346074A009038
:1002C000074811F011FA04460FF06AFC002006B04E
:1002D00010BD000040100020CC100020C8140020E9
:1002E000710200087FB500200390002402900EF0F8
:1002F000A5FE0546FE480078401CFD4908702846CA
:100300000EF0A0FE02AB6A4603A9FA4805F0EEFE25
:100310000398A0F52070C4B2092C7DD2DFE804F068
:100320007C054B8BC9FDFCFBFA0045F65601009895
:10033000884217D1019805F01AFFEF4880ED020AB4
:10034000B0F84000012803DA0120EB49A1F8400091
:10035000E948B0F84000401EE749A1F840000020FD
:10036000A1F850000098B0F1223F0BD10198B0F1F4
:10037000223F07D1E04890F8600040F00100DE49DC
:1003800081F860000098B0F1CC3F0BD10198B0F13A
:10039000CC3F07D1D84890F8600040F00200D64921
:1003A00081F8600041F211110098884202D1D249CF
:1003B0000198886636E245F656010098884217D1C2
:1003C000019805F0D4FECC4880ED060AB0F8420052
:1003D000012803DA0120C849A1F84200C648B0F854
:1003E0004200401EC449A1F842000020A1F852007A
:1003F0000098B0F1223F0BD10198B0F1223F07D114
:10040000BD4890F8610040F00100BB4981F86100EF
:100410000098B0F1CC3F00E003E20BD10198B0F1BD
:10042000CC3F07D1B44890F8610040F00200B249D7
:1004300081F86100F6E145F656010098884217D12F
:10044000019805F094FEAC4880ED0A0AB0F844002B
:10045000012803DA0120A849A1F84400A648B0F811
:100460004400401EA449A1F844000020A1F8540013
:100470000098B0F1223F0BD10198B0F1223F07D193
:100480009D4890F8620040F001009B4981F86200AD
:100490000098B0F1CC3F0BD10198B0F1CC3F07D11F
:1004A000954890F8620040F00200934981F862009C
:1004B000B8E145F656010098884217D1019805F039
:1004C00056FE8D4880ED0E0AB0F84600012803DA8A
:1004D00001208949A1F846008748B0F84600401E2F
:1004E0008549A1F846000020A1F856000098B0F117
:1004F000223F0BD10198B0F1223F07D17E4890F8FE
:10050000630040F001007C4981F863000098B0F17D
:10051000CC3F03E02DE1C7E06EE015E00BD1019880
:10052000B0F1CC3F07D1744890F8630040F002006E
:10053000714981F8630041F211110098884202D19B
:100540006D490198C8666DE145F6500100988842F2
:1005500019D1694A116F019806F0D2F9664880ED09
:10056000030AB0F84800012803DA01206249A1F823
:1005700048006148B0F84800401E5F49A1F84800B3
:100580000020A1F8580045F656010098884212D183
:100590009DED010AF8EEC00A9FED581A80EE810A1F
:1005A0009FED571AC0EE010A9FED560A20EE800A11
:1005B000514880ED210A0098B0F1223F0BD10198FB
:1005C000B0F1223F07D14C4890F8640040F00100A0
:1005D000494981F864000098B0F1CC3F0BD10198F3
:1005E000B0F1CC3F07D1444890F8640040F00200DD
:1005F000414981F8640015E145F6500100988842B0
:1006000019D13D4A516F019806F07AF93A4880EDC8
:10061000070AB0F84A00012803DA01203649A1F898
:100620004A003548B0F84A00401E3349A1F84A0054
:100630000020A1F85A0045F656010098884212D1D0
:100640009DED010AF8EEC00A9FED2C1A80EE810A9A
:100650009FED2B1AC0EE010A9FED2A0A20EE800AB8
:10066000254880ED220A0098B0F1223F0BD1019875
:10067000B0F1223F07D1204890F8650040F001001A
:100680001D4981F865000098B0F1CC3F0BD101986D
:10069000B0F1CC3F07D1184890F8650040F0020057
:1006A000154981F86500BDE045F650010098884283
:1006B00019D1114A916F019806F022F90E4880ED88
:1006C0000B0AB0F84C00012803DA01200A49A1F80E
:1006D0004C000948B0F84C00401E0749A1F84C00F6
:1006E0000020A1F85C0045F65601009888420BE016
:1006F0007510002000640040CC5800200000004726
:10070000000010430000B44312D19DED010AB8EE81
:10071000C00A1FED061AC0EE010A1FED071A80EE8F
:10072000810A5FED080A20EE200AFE4880ED230AC8
:100730000098B0F1223F0BD10198B0F1223F07D1D0
:10074000F84890F8660040F00100F64981F866002C
:100750000098B0F1CC3F0BD10198B0F1CC3F07D15C
:10076000F04890F8660040F00200EE4981F866001B
:1007700058E045F650010098884219D1E94AD16FF6
:10078000019806F0BDF8E74880ED0F0AB0F84E007A
:10079000012803DA0120E349A1F84E00E148B0F84E
:1007A0004E00401EDF49A1F84E000020A1F85E0077
:1007B00045F656010098884212D19DED010AF8EEE7
:1007C000C00A1FED321A80EE810A1FED331AC0EE07
:1007D000010A1FED340A20EE800AD24880ED240A77
:1007E0000098B0F1223F0BD10198B0F1223F07D120
:1007F000CC4890F8670040F00100CA4981F86700D2
:100800000098B0F1CC3F0BD10198B0F1CC3F07D1AB
:10081000C44890F8670040F00200C24981F86700C0
:1008200000E000BF00BFC049C04813F0D6FFBE497A
:10083000491CBE4813F0D1FFBB49C91CBB4813F08B
:10084000CCFFBB49B94813F0C8FFBA49B74813F009
:10085000C4FFB949B54813F0C0FFB7490831B348E0
:1008600013F0BBFFB549B14813F0B7FFB449AF4827
:1008700013F0B3FFB2490831AC4813F0AEFF0FF0EC
:10088000CCF87FBD7FB500200390002402900EF0CD
:10089000D5FB0546AB480078401CAA49087028469D
:1008A0000EF0D0FB02AB6A4603A9A74805F01EFC78
:1008B0000398A0F52070C4B2022C27D0032C36D0A8
:1008C000042C12D0052C43D145F6500100988842E3
:1008D00005D101980BF07CFA924880ED690A0098E6
:1008E000B0F1223F00D100BF33E045F6500100983F
:1008F000884205D101980BF06BFA8A4880ED6A0AAC
:100900000098B0F1223F00D100BF22E045F650012F
:100910000098884205D101980CF00DFD814880EDCA
:100920006C0A0098B0F1223F00D100BF11E045F6FB
:1009300050010098884205D101980CF0FCFC7948E0
:1009400080ED6E0A0098B0F1223F00D100BF00E0B8
:1009500000BF00BF74497C4813F03FFF7249491C37
:10096000794813F03AFF7049C91C774813F035FFF6
:100970006F49754813F031FF6E49734813F02DFF2E
:100980006D49714813F029FF6B4908316E4813F027
:1009900024FF6A496C4813F020FF69496A4813F044
:1009A0001CFF67490831684813F017FF0FF035F84E
:1009B0007FBD10B50EF042FB044662480078401C33
:1009C0006049087020460EF03DFB0121880713F0B6
:1009D00010F8012829D15D480078401E5B49087055
:1009E0005B480078401E5A4908705848007850B952
:1009F0005848006810F0C1FC5748006810F0BDFC72
:100A00001420524908705248007840B95348006891
:100A100010F0B3FC0A204E4908700BF0C7F908F03B
:100A200081FB0121880712F0F5FF0EF0F6FF10BDE3
:100A300010B50EF003FB044642480078401C4149C3
:100A4000087020460EF0FEFA0121454812F0D1FF51
:100A5000012803D10121424812F0DCFF0EF0DDFF36
:100A600010BD10B50EF0EAFA044636480078401C76
:100A70003449087020460EF0E5FA0121394812F099
:100A8000B8FF012803D10121364812F0C3FF0EF050
:100A9000C4FF10BD10B50EF0D1FA04462948007805
:100AA000401C2849087020460EF0CCFA01212E483F
:100AB00012F09FFF012803D101212B4812F0AAFF59
:100AC0000EF0ABFF10BD10B50EF0B8FA04461D488D
:100AD0000078401C1B49087020460EF0B3FA012133
:100AE000224812F086FF012803D101211F4812F08D
:100AF00091FF0EF092FF10BD10B50EF09FFA044664
:100B000010480078401C0F49087020460EF09AFAF1
:100B10000121174812F06DFF01282DD10121144841
:100B200028E00000CC5800200100F01000640040D4
:100B30007000F030030000120800003203000014BF
:100B400008000034751000200068004000000020FC
:100B5000010000200C0000201800002010000020E0
:100B60000000014000040140000C0040000400406F
:100B70000008004012F04EFF0EF04FFF10BD10B500
:100B80000EF05CFA0446FE480078401CFC490870F0
:100B900020460EF057FA40F22551FA4813F0EFF9CB
:100BA00001287AD1F74813F03EF9F749087040F26E
:100BB0002551F44813F01AFAF44890F880010028FF
:100BC0006CD1F348007807286ED2DFE800F00412F9
:100BD000202E3C4A5800EC480078412805D1EC48CA
:100BE0000078401CEA49087002E00020E8490870DB
:100BF0005EE0E5480078542805D1E5480078401CBF
:100C0000E349087002E00020E149087050E0DE4846
:100C100000782B2805D1DE480078401CDC4908709C
:100C200002E00020DA49087042E0D74800785328F3
:100C300005D1D7480078401CD549087002E0002053
:100C4000D349087034E0D0480078442805D1D04812
:100C50000078401CCE49087002E00020CC490870A2
:100C600026E0C94800780D2805D1C9480078401C05
:100C7000C749087002E00020C549087018E0C24862
:100C800000780A280CD1C2480078401CC04908707E
:100C90000121BE4880F8801105E00AE041E003E050
:100CA0000020BB49087003E00020B949087000BF6C
:100CB00037E02821B34813F099F940F22771B14881
:100CC00013F094F940F22661AE4813F08FF940F228
:100CD0002531AC4813F08AF940F22441A94813F0B9
:100CE00085F940F64601A74813F080F940F66A11ED
:100CF000A44813F07BF96021A24813F077F94FF470
:100D00005871A04813F072F94FF418719D4813F010
:100D10006DF94FF4B0719B4813F068F9994813F0DE
:100D200082F80EF07AFE10BD10B50EF087F9044679
:100D300093480078401C9249087020460EF082F9D2
:100D400040F22551934813F01AF9012818D140F2C6
:100D50002551904813F04AF98E4813F064F88E49F3
:100D600008708A4890F8C201012804D1084600782A
:100D70000BF095FF3CE0884800780DF03FFA37E033
:100D80002821844813F032F940F22771814813F08A
:100D90002DF940F226617F4813F028F940F2253101
:100DA0007C4813F023F940F224417A4813F01EF9ED
:100DB00040F64601774813F019F940F66A11754874
:100DC00013F014F96021734813F010F94FF45871BF
:100DD000704813F00BF94FF418716E4813F006F9D0
:100DE0004FF4B0716B4813F001F96A4813F01BF827
:100DF0000EF013FE10BD70B500240EF01FF905466D
:100E00005F480078401C5E49087028460EF01AF9C9
:100E100040F22551614813F0B2F801280CD15F4827
:100E200013F001F8C4B220460BF030F940F225511E
:100E30005A4813F0DBF837E02821584813F0D6F869
:100E400040F22771554813F0D1F840F2266153481B
:100E500013F0CCF840F22531504813F0C7F840F2B7
:100E600024414E4813F0C2F840F646014B4813F0B7
:100E7000BDF840F66A11494813F0B8F860214748B8
:100E800013F0B4F84FF45871444813F0AFF84FF42E
:100E90001871424813F0AAF84FF4B0713F4813F0AC
:100EA000A5F83E4812F0BFFF0EF0B7FD70BD1CB5AF
:100EB0000AE03BA04FF4C8713D4B3E4ACDE900101B
:100EC0003D49304808F03FF8F3E770B52DED028B4F
:100ED00086B005460E46B0EE408A142237A101A81E
:100EE00014F036FD3446002082E0B0EE000AC8EE71
:100EF000000AB6EE000A30EE800ABDEEC00AB8EE77
:100F0000C00AF0EE000A20EE200AB4EEC80AF1EEA4
:100F100010FA01DD002814DCF0EE000A88EE200A49
:100F2000F6EE000A30EE200ABDEEC00AB8EEC00AA6
:100F3000F0EE000A20EE200AB4EE480AF1EE10FAB4
:100F400015D1F0EE000A88EE200AF6EE000A30EE27
:100F5000200ABDEEC00A10EE101A2944091A11F831
:100F6000011C01AA02EB2111097804F8011BB0EE63
:100F7000000AC8EE000AB6EE000A30EE800A27E04A
:100F8000751000200010014002000020CC58002005
:100F900003000020004400400400002000500040F6
:100FA0004E4D4920457863657074696F6E2120004D
:100FB000F45C0020C4000020645B00203031323338
:100FC0003435363738394142434445460000000045
:100FD000BDEEC00A10EE101A2944091A11F8011CBE
:100FE00001F00F0101AA515C04F8011B411CC8B2B9
:100FF000B0EE000AC8EE000AB6EE000A30EE800A33
:10100000BDEEC00A10EE101A81423FF76EAF06B077
:10101000BDEC028B70BD1FB59FED611ADFED600A5C
:101020009FED5F0A05F0E3FB00BFEFF3098028B1F5
:1010300000BFEFF309805B49086004E000BFEFF3F5
:1010400008805849086057480068103055490860C2
:101050000020039054A055A14FF4C872544BCDE921
:1010600000210290534A5449544807F06CFF03246E
:1010700029E04C490968214401F11C00B0EE000A46
:1010800003A9FFF722FF03A848A14FF4C872484BF9
:10109000CDE900210290474A4749484807F053FFED
:1010A000E11704EB91718910A4EB810151B944A0BF
:1010B0004FF4C8713E4B3F4ACDE900103E493F48CE
:1010C00007F041FF641E14F11C0FD2DA3CA04FF46C
:1010D000C871374B374ACDE900103749374807F018
:1010E00032FF15E037A04FF4C871314B314ACDE9DA
:1010F00000103149314807F026FF9FED291ADFED36
:10110000280A9FED270A05F072FB324800F0A2F88A
:10111000E8E71CB50AE030A04FF4C871244B254A1B
:10112000CDE900102449254807F00DFFF3E71CB571
:101130000AE030A04FF4C8711D4B1E4ACDE90010E3
:101140001D491E4807F0FFFEF3E71CB50AE02FA07B
:101150004FF4C871164B174ACDE9001016491748CD
:1011600007F0F1FEF3E71CB50AE02EA04FF4C871BA
:101170000F4B104ACDE900100F49104807F0E3FE6D
:10118000F3E71CB50AE02CA04FF4C871084B094ADC
:10119000CDE900100849094807F0D5FEF3E7000043
:1011A00000000000080000203078000025730000D7
:1011B000F45C0020C4000020645B002000100140AB
:1011C0000D0A000048617264204661756C740D0A56
:1011D000000000007F8B08004D656D6F7279204D17
:1011E000616E61676520457863657074696F6E2113
:1011F00020000000427573204661756C74204578AC
:1012000063657074696F6E2120000000557361671B
:1012100065204661756C7420457863657074696FEC
:101220006E212000535643616C6C204578636570D5
:1012300074696F6E212000004465627567204D6FF0
:101240006E69746F7220457863657074696F6E2182
:101250002000000000BF401E0028FCD170472DE98F
:10126000FF4104460D4616461F46DDF82880F94921
:10127000601A8C4270D01ADCF749A4EB01008C4252
:101280006CD00ADCB4F1804F4ED0F44820440028E2
:1012900052D0B0F5806F71D156E0B0F5806F65D057
:1012A000B0F5006F6CD0B0F5406FF4D170E0B0F5E0
:1012B000923F21D009DCB0F5806F7AD0B0F5644F51
:1012C0000AD0B0F5684F7CD10EE0B0F5943F1BD04A
:1012D000B0F5963F75D11FE00121084611F0BAFC28
:1012E00019208DF800006DE00121022011F0B2FC00
:1012F0002C208DF8000065E00121080411F0AAFC03
:1013000018208DF800005DE00121192011F0A2FCE9
:101310002C208DF8000055E00121880411F09AFC82
:101320001A208DF800004DE00121084611F081FCE3
:101330001C208DF8000045E00121022011F079FC0D
:101340001D208DF800003DE00121042011F071FC0A
:101350001E208DF8000035E023E0FFE70121082082
:1013600011F067FC32208DF800002BE001211020E5
:1013700011F05FFC36208DF8000023E021E0FFE74C
:101380000121202011F055FC37208DF8000019E0D4
:101390000121402011F04DFC2B208DF8000011E0C0
:1013A00007E00121802011F044FC2C208DF8000082
:1013B00008E00121080211F03CFC2D208DF800000E
:1013C00000E000BF00BF0295ADF804600020ADF85A
:1013D0000C00ADF8060001A9204611F052FE0121D3
:1013E000204612F017FB01221146204612F0EAFABD
:1013F000F8B28DF8010008F0FF008DF8020001201E
:101400008DF80300684611F024FD0121204611F0FB
:10141000C1FEBDE8FF81FEB504460D462E468D494E
:10142000601A8C4270D01ADC8B49A4EB01008C420C
:101430006CD00ADCB4F1804F4ED08848204400289C
:1014400052D0B0F5806F71D156E0B0F5806F65D0A5
:10145000B0F5006F6CD0B0F5406FF4D170E0B0F52E
:10146000923F21D009DCB0F5806F7AD0B0F5644F9F
:101470000AD0B0F5684F7CD10EE0B0F5943F1BD098
:10148000B0F5963F75D11FE00121084611F0E2FB4F
:10149000A820ADF800006DE00121022011F0DAFB78
:1014A000A820ADF8000065E00121080411F0D2FB8E
:1014B000A820ADF800005DE00121480411F0CAFB4E
:1014C000A820ADF8000055E00121880411F0C2FB0E
:1014D000A820ADF800004DE00121084611F0A9FB5D
:1014E0005420ADF8000045E00121022011F0A1FBDD
:1014F0005420ADF800003DE00121042011F099FBDB
:101500005420ADF8000035E023E0FFE7012108207A
:1015100011F08FFB5420ADF800002BE001211020CA
:1015200011F087FB5420ADF8000023E021E0FFE735
:101530000121202011F07DFB5420ADF8000019E0BE
:101540000121402011F075FB5420ADF8000011E09E
:1015500007E00121802011F06CFB5420ADF8000061
:1015600008E00121080211F064FB5420ADF80000EE
:1015700000E000BF00BF012001900020ADF808008E
:10158000ADF802006946204611F07BFD012120469E
:1015900011F000FE4FF6FF70811B204611F0BAFDDE
:1015A00003E0204611F0BAFD86B24FF6FF70864286
:1015B000F7DB0021204611F0EDFDFEBDFEB504462F
:1015C0000D462E462349601A8C4276D01ADC2249F9
:1015D000A4EB01008C427CD00ADCB4F1804F5AD0DD
:1015E0001E48204400285FD0B0F5806F67D167E0C7
:1015F000B0F5806F79D0B0F5006F7FD0B0F5406F57
:10160000F4D184E0B0F5923F2AD009DCB0F5806FC8
:101610006AD0B0F5644F0AD0B0F5684F4FD10FE0F3
:10162000B0F5943F25D0B0F5963F48D12AE001218E
:10163000084611F00FFB44F2A010ADF8000082E064
:101640000121022011F006FB44F2A010ADF80000C9
:1016500079E00000001C0040000C004000FCFFBFCF
:101660000121080411F0F6FA44F2A010ADF80000D0
:1016700069E00121480411F0EDFA44F2A010ADF840
:10168000000060E00121880411F0E4FA44F2A010A7
:10169000ADF8000057E00121084611F0CAFA42F205
:1016A000D000ADF800004EE00121022011F0C1FA97
:1016B00042F2D000ADF8000045E031E009E041E041
:1016C0000121042011F0B5FA42F2D000ADF800007B
:1016D00039E00121082011F0ACFA42F2D000ADF857
:1016E000000030E001E009E023E00121102011F0CA
:1016F000A0FA42F2D000ADF8000024E00121202041
:1017000011F097FA42F2D000ADF800001BE0012181
:10171000402011F08EFA42F2D000ADF8000012E045
:101720000121802011F085FA42F2D000ADF80000CE
:1017300009E00121080211F07CFA42F2D000ADF874
:10174000000000E000BF00BF012001900020ADF8C4
:101750000800ADF802006946204611F092FC012114
:10176000204611F017FD4FF6FF70811B204611F047
:10177000D1FC03E0204611F0D1FC86B24FF6FF7099
:101780008642F7DB0021204611F004FDFEBD70B556
:1017900006460C46002500BF04E00A213046FFF74C
:1017A0000DFF6D1CA542F8D370BD30B58BB004465B
:1017B0000D460121084611F04DFA0121084611F0AD
:1017C00005FA01220821FA4811F045F84FF480701B
:1017D000099002208DF8280003208DF829000020B0
:1017E0008DF82A0001208DF82B0009A9F04810F08F
:1017F000A7FFA8B2ADF818000020ADF81A000794B2
:10180000ADF820008DF8220006A9EA4811F039FC55
:101810007020ADF804000120ADF806000020ADF8FE
:10182000100001A9E34811F0C1FC0821E14811F0C2
:101830004AFE0121DF4811F08FFC0121DD4811F043
:10184000A9FC0121DB4812F096F80BB030BD30B591
:101850008BB004460D460121022011F0EAF9012166
:10186000042011F0B3F902220821D34810F0F3FF4D
:101870004FF48070099002208DF8280003208DF825
:10188000290000208DF82A0001208DF82B0009A9DD
:10189000C94810F055FFA8B2ADF818000020ADF807
:1018A0001A000794ADF8200006A9C44811F0E9FB1E
:1018B0006020ADF804000120ADF806000020ADF86E
:1018C000100001A9BD4811F0F7FC0821BB4811F038
:1018D00010FE0121B94811F03FFC0121B74811F079
:1018E00059FC0BB030BD30B58BB004460D4601211C
:1018F000042011F09EF90121082011F067F902225D
:101900000C21AF4810F0A7FF02220E21AC4810F0C6
:10191000A2FF4FF4A040099002208DF82800032078
:101920008DF8290000208DF82A0001208DF82B0069
:1019300009A9A34810F004FFA8B2ADF818000020D0
:10194000ADF81A000794ADF8200006A99D4811F0E3
:1019500098FB6020ADF804000120ADF806000020DF
:10196000ADF8100001A9974811F020FC01A9954895
:1019700011F0A2FC0821934811F0A5FD082191481F
:1019800011F0B7FD01218F4811F0E6FB01218D48D0
:1019900011F000FC0BB030BD30B58BB004460D46E5
:1019A0000121082011F045F90121084611F00EF936
:1019B000022201217E4810F04EFF022009908DF88E
:1019C000280003208DF8290000208DF82A0001202E
:1019D0008DF82B0009A9764810F0B2FEA8B2ADF838
:1019E00018000020ADF81A000794ADF8200006A9F1
:1019F000754811F046FB6020ADF804000120ADF8F9
:101A000006000020ADF8100001A96F4811F007FC96
:101A100008216D4811F060FD01216B4811F09CFB1D
:101A20000121694811F0B6FB4FF47A71664811F054
:101A300018FD0BB030BD30B58BB004460D4601210A
:101A4000022011F007F90121042011F0BFF8032250
:101A50000821594810F0FFFE4FF4807009900220D1
:101A60008DF8280003208DF8290000208DF82A0029
:101A700001208DF82B0009A94F4810F061FEA8B293
:101A8000ADF818000020ADF81A000794ADF820005A
:101A900006A94E4811F0F5FA6020ADF804000120C7
:101AA000ADF806000020ADF8100001A9474811F07C
:101AB00003FC0821454811F01CFD0121434811F0A9
:101AC0004BFB0121414811F065FB0BB030BD7FB5E8
:101AD00005460C460121202011F0ABF80195ADF828
:101AE00000400020ADF80800ADF802006946384813
:101AF00011F0C7FA01221146354811F063FF372073
:101B00008DF80C0000208DF80D0001208DF80E00DE
:101B10008DF80F0003A811F09CF97FBD00B52DEDE5
:101B2000040B85B09DED050AB5EEC00AF1EE10FA82
:101B300008D39DED050AF7EE000AB4EEE00AF1EED7
:101B400010FA01DD09B000BD9DED060AB5EEC00A30
:101B5000F1EE10FA08D39DED060AF7EE000AB4EE96
:101B6000E00AF1EE10FA00DDECE79DED070AB5EEB4
:101B7000C00AF1EE10FA08D39DED070AF7EE000A4D
:101B8000B4EEE00AF1EE10FA00DDDBE79DED080AA5
:101B9000B5EEC00AF1EE10FA08D39DED080AF7EE93
:101BA000000AB4EEE00AF1EE10FA13DDCAE7000015
:101BB0000000024000000140000802400004004014
:101BC000000C024000080040000C004000040140EE
:101BD00000140040DDED050A9FED441A9FED430A15
:101BE00000EE810A8DED010ADDED060A9FED3F1A38
:101BF0009FED3E0A00EE810A8DED020ADDED070A37
:101C00009FED3A1A9FED390A00EE810A8DED030A25
:101C1000DDED080A9FED351A9FED340A00EE810ACA
:101C20008DED040A9DED010ADFED310A20EE200A58
:101C3000BCEEC00A10EE101A2E4811F010FC9DEDFB
:101C4000020ADFED2B0A20EE200ABCEEC00A10EEDD
:101C5000101A294811F007FC9DED030ADFED240A54
:101C600020EE200ABCEEC00A10EE101A234811F034
:101C7000FAFB9DED040ADFED1E0A20EE200ABCEE01
:101C8000C00A10EE101A1E4811F0EBFB00BF59E716
:101C900010B52DED028BB0EE408A9FED1A0AF0EEE2
:101CA000408AB5EEC08AF1EE10FA06D3B7EE000A0C
:101CB000B4EEC08AF1EE10FA02DDBDEC028B10BD6D
:101CC000DFED0A0A9FED090A08EE200AF0EE408ACD
:101CD0009FED070A28EE800ABCEEC00A10EE101A2B
:101CE000064811F0BCFB00BFE7E70000CDCC4C3D3F
:101CF00000409C46000001400004004000080040F5
:101D0000000C0040000000007CB504460D4616465D
:101D1000C4F30900002839D1A012A0F58010803842
:101D2000092833D2DFE800F0050A0F14191E232812
:101D30002D000121084610F049FF28E00121022072
:101D400010F044FF23E00121042010F03FFF1EE0CB
:101D50000121082010F03AFF19E00121102010F0B5
:101D600035FF14E00121202010F030FF0FE00121A9
:101D7000402010F02BFF0AE00121802010F026FF08
:101D800005E00121080210F021FF00E000BF00BFC4
:101D900000958DF8046000208DF806008DF807008E
:101DA00002208DF805006946204610F0C9FC7CBD74
:101DB000704770477047704770B504460D46E1B2F2
:101DC000FE4812F01AF800BF4021FC4812F008F853
:101DD0000028F9D0204670BD10B588B00446012116
:101DE000082010F0F3FE0121880410F022FF0722E2
:101DF0000821F34810F02FFD07220921F04810F0C8
:101E00002AFD4FF44070069002208DF81C008DF8DA
:101E10001D0000208DF81E0001208DF81F0006A96E
:101E2000E74810F08DFC02940020ADF80C00ADF8EE
:101E30000E00ADF81000ADF814000C20ADF8120043
:101E400002A9E04811F010FF0121DE4811F094FFD3
:101E50004021DC4811F0BBFF012240F22551D94856
:101E600012F068F827208DF8040001208DF8050095
:101E700002208DF8060001208DF8070001A810F05F
:101E8000E8FF08B010BD10B588B004460121042059
:101E900010F09CFE0121202010F0DCFE082206211B
:101EA000C94810F0D8FC08220721C74810F0D3FC1D
:101EB000C020069002208DF81C008DF81D00002027
:101EC0008DF81E0001208DF81F0006A9BE4810F0F5
:101ED00037FC4FF4E13002900020ADF80C00ADF873
:101EE0000E00ADF81000ADF814000C20ADF8120093
:101EF00002A9B64811F0B8FE0121B44811F03CFF28
:101F00004021B24811F063FF012240F22551AF4851
:101F100012F010F847208DF8040000208DF805001D
:101F20008DF8060001208DF8070001A810F091FF40
:101F300008B010BD10B588B004460121084610F065
:101F400045FE0121C80410F074FE08220021A048BB
:101F500010F081FC082201219D4810F07CFC032038
:101F6000069002208DF81C008DF81D0000208DF8D1
:101F70001E0001208DF81F0006A9954810F0E0FB17
:101F800002940020ADF80C00ADF80E00ADF8100082
:101F9000ADF814000C20ADF8120002A98D4811F024
:101FA00063FE40218B4811F012FF34208DF80400AD
:101FB00000208DF8050001208DF806008DF807003F
:101FC00001A810F046FF012240F22551814811F08E
:101FD000B1FF01217F4811F0CFFE08B010BD10B550
:101FE00088B004460121084610F0F0FD01211020C0
:101FF00010F030FE07220921754810F02CFC072252
:102000000A21734810F027FC4FF4C06006900220AC
:102010008DF81C008DF81D0000208DF81E00012099
:102020008DF81F0006A96A4810F08AFB0294002070
:10203000ADF80C00ADF80E00ADF81000ADF81400CE
:102040000C20ADF8120002A9634811F00DFE4021EA
:10205000614811F0BCFE25208DF8040000208DF8A9
:10206000050002208DF8060001208DF8070001A868
:1020700010F0EFFE012240F22551574811F05AFFAF
:102080000121554811F078FE08B010BD10B588B098
:1020900004460121084610F099FD0121480410F082
:1020A000C8FD072202214A4810F0D5FB0722032170
:1020B000474810F0D0FB0C20069002208DF81C0041
:1020C0008DF81D0000208DF81E0001208DF81F00E6
:1020D00006A93F4810F034FB02940020ADF80C0034
:1020E000ADF80E00ADF81000ADF814000C20ADF8FE
:1020F000120002A9394811F0B7FD4021374811F00C
:1021000066FE26208DF8040002208DF805000320CD
:102110008DF8060001208DF8070001A810F099FE47
:10212000012240F225512D4811F004FF01212B48D6
:1021300011F022FE08B010BD10B588B0044601941D
:102140000020ADF80800ADF80A00ADF80C00ADF8BD
:1021500010000C20ADF80E00012110F037FD012118
:10216000080510F066FD154811F030FD08220C211D
:10217000154810F070FB08220221114810F06BFB8B
:1021800000208DF81A0001208DF81B0002208DF828
:102190001800C002059002208DF8190005A90A4810
:1021A00010F0CEFA02208DF818000420059005A941
:1021B000034810F0C5FA01A9004811E000500040A2
:1021C000000C02400048004000080240001401409A
:1021D00000000240004C004000100140004400405C
:1021E00011F042FD35208DF81C0001208DF81F00F4
:1021F0008DF81D008DF81E004FF4A06010F024FE35
:1022000007A810F026FE012240F225515D4811F08A
:1022100091FE01215B4811F0AFFD08B010BDF0B593
:1022200003460D461646002729460A2E03D00020F5
:1022300008702846F0BD33B9302001F8010B0020AA
:1022400008702846F6E7002B03DA2D2001F8010B71
:102250005B424D4A0DE0B3FBF2F404B937B104F12F
:10226000300001F8010B04FB123301270A20B2FBF6
:10227000F0F2002AEFD1002008702846DAE70FB408
:1022800070B586B006460CA8019073E00B980078F4
:102290005C281CD10B98401C0B9000786E2809D04C
:1022A00072280FD10D21304611F0A7FD0B98401C6C
:1022B0000B900BE00A21304611F09FFD0B98401C5B
:1022C0000B9003E00B98401C0B9000BF4BE00B9869
:1022D0000078252840D10B98401C0B90007864288A
:1022E00018D0732833D1019810C801900BE02178E1
:1022F000304611F082FD00BF4021304611F070FDE4
:102300000028F9D0641C20780028F0D10B98401CDC
:102310000B9020E0019820C801900A2202A92846CB
:10232000FFF77DFF02AC0BE02178304611F065FD30
:1023300000BF4021304611F053FD0028F9D0641C45
:1023400020780028F0D10B98401C0B9003E00B98EC
:10235000401C0B9000BF06E00B9810F8011B0B907F
:10236000304611F04AFD00BF4021304611F038FDE3
:102370000028F9D00B980078002887D106B070BCEF
:102380005DF814FB0050004000E1F50510B5082190
:10239000FE4810F037FA78B1FD480078401CFC493F
:1023A000087008460078642801DD642001E0F848E0
:1023B0000078F749087002E00020F5490870F448F9
:1023C00000780F281EDDF34890F8C201D0B905F05F
:1023D0001CFFF14880ED000A90ED000AED4880ED09
:1023E000850A012180F8C21101200AF0FEF90821B6
:1023F000EA4810F021FAEA48FEF72CFF0821E748E6
:1024000010F01CFA10BD1CB50221E04810F0FAF9DA
:1024100090B10020E3490870E3480078401CE2498D
:10242000087008460078642801DD642001E0DE4879
:102430000078DD49087016E00221D44810F0E2F976
:1024400088B90020D8490870D6480078401CD54982
:10245000087008460078642801DD642001E0D14856
:102460000078D0490870D04800780A2812DBCF489D
:10247000007878B90120CD49087007F0BDFCCCA0E8
:102480004FF4C871CF4BD04ACDE90010CF49D048A6
:1024900006F059FDC34800780A2813DBC3480078CA
:1024A00001280FD10020C149087007F027F8C9A002
:1024B0004FF4C871C34BC44ACDE90010C349C448A6
:1024C00006F041FD1CBD0EB59DF8080002900AF013
:1024D00040F802AA0021C44800680EF0A9FFDEE01F
:1024E00002AA0021C04800680EF08CFE02AA00215A
:1024F000BD4800680EF09CFF0AF007FAFFF783FF63
:10250000FFF744FF0AF026FB002872D1B748007895
:1025100030B1012819D002282DD003286AD16AE0F1
:102520000AF0CEF901909DF8040068B9B048B14CAA
:1025300010341ECC08301EC0183808300FC809F0FF
:10254000E1FF0120A949087083E00AF0B9F9019080
:102550009DF8040001280DD1A548A64C20341ECCBE
:1025600008301EC0183808300FC809F0CBFF022011
:102570009E4908706DE00AF0A3F901909DF80400EF
:10258000022835D102E002200FF008FC814890EDCE
:102590006C0AB1EE400AB5EEC00AF1EE10FAF2D9BB
:1025A00090ED6E0AB5EEC00AF1EE10FAEBD9904844
:1025B000904CD4E90C23D4E90E14C0E90414C0E90A
:1025C000022308300FC809F09DFF8BA04FF4C8719B
:1025D0007C4B7D4ACDE900107C497D4806F0B3FC78
:1025E0008848007808B90AF0F2F903207F4908709A
:1025F0002FE02FE02CE00AF063F901909DF8050030
:1026000003280DD17F480078002801DD0AF0DFF9AA
:102610000AF0E0FA0AF04AF900207449087016E05E
:102620005C4890F80A0290B95A4890F89C01182822
:102630000DD06F486F4CD4E90D32216BE46BC0E9CB
:102640000424C0E9021308300FC809F05BFF00E062
:1026500000BF24E00AF07EFA012820D14D4890F80E
:10266000C101012809D1624808300FC809F04AFFAA
:102670000021484880F8C11111E0464890F8C30194
:1026800001280CD15A4808300FC809F03BFF0AF066
:102690009EF90AF09FFA00213E4880F8C3111FE717
:1026A0001CB53C4890F8BC0100F0010050B156A0A8
:1026B0004FF4C871434B444ACDE9001043494448A4
:1026C00006F041FC334890F8BC0100F0020050B124
:1026D00051A04FF4C8713B4B3B4ACDE900103B4938
:1026E0003B4806F030FC2B4890F8BC0130B1182074
:1026F000284981F89C010E200CF060F91CBD1CB526
:102700000121494802F0D7FE0121474802F036FF77
:102710000021454802F032FF0021444802F0CBFE80
:102720001C48B0F84000401C1A49A1F84000084677
:10273000B0F84200401CA1F842000846B0F844003E
:10274000401CA1F844000846B0F84600401CA1F81F
:1027500046000846B0F84800401CA1F8480008466A
:10276000B0F84A00401CA1F84A000846B0F84C00F6
:10277000401CA1F84C000846B0F84E00401CA1F8DF
:102780004E000846B0F85000401C51E0000C0240DA
:1027900035000020CC580020200000200008024016
:1027A000FF3EAB013700002036000020380000203B
:1027B00056616C76655377697463684F6E210D0AB4
:1027C00000000000F45C0020C4000020645B0020D6
:1027D0000010014056616C76655377697463684FE9
:1027E0006666210D0A000000180000201C00002071
:1027F0008C5A00202C0F0020426173654F75740DB8
:102800000A000000280F002043414E3153656E64DA
:102810004661696C2120000043414E3253656E646D
:102820004661696C2120000000640040006800409F
:10283000A1F850000846B0F85200401CA1F8520020
:102840000846B0F85400401CA1F854000846B0F8FF
:102850005600401CA1F856000846B0F85800401C2D
:10286000A1F858000846B0F85A00401CA1F85A00D8
:102870000846B0F85C00401CA1F85C000846B0F8BF
:102880005E00401CA1F85E00084690F8600000F071
:10289000010050B1F4A04FF4C871F94BF94ACDE9E9
:1028A0000010F949F94806F04EFBF94890F861002C
:1028B00000F0010050B1F7A04FF4C871F04BF14A9D
:1028C000CDE90010F049F14806F03DFBF04890F8E2
:1028D000620000F0010050B1F4A04FF4C871E84B61
:1028E000E84ACDE90010E849E84806F02CFBE84842
:1028F00090F8630000F0010050B1F1A04FF4C871EE
:10290000DF4BE04ACDE90010DF49E04806F01BFB51
:10291000DF4890F8640000F0010050B1EEA04FF4E1
:10292000C871D74BD74ACDE90010D749D74806F030
:102930000AFBD74890F8650000F0010050B1EDA007
:102940004FF4C871CE4BCF4ACDE90010CE49CF48E5
:1029500006F0F9FACE4890F8660000F0010050B198
:10296000EBA04FF4C871C64BC64ACDE90010C6496A
:10297000C64806F0E8FAC64890F8670000F0010083
:1029800050B1E9A04FF4C871BD4BBE4ACDE900106B
:10299000BD49BE4806F0D7FABD4890F8600000F087
:1029A000020050B1E7A04FF4C871B54BB54ACDE96C
:1029B0000010B549B54806F0C6FAB54890F8610070
:1029C00000F0020050B1E5A04FF4C871AC4BAD4A25
:1029D000CDE90010AC49AD4806F0B5FAAC4890F826
:1029E000620000F0020050B1E2A04FF4C871A44BA5
:1029F000A44ACDE90010A449A44806F0A4FAA448CA
:102A000090F8630000F0020050B1E0A04FF4C871EC
:102A10009B4B9C4ACDE900109B499C4806F093FAD9
:102A20009B4890F8640000F0020050B1DDA04FF424
:102A3000C871934B934ACDE900109349934806F02F
:102A400082FA934890F8650000F0020050B1DCA0D3
:102A50004FF4C8718A4B8B4ACDE900108A498B48E4
:102A600006F071FA8A4890F8660000F0020050B152
:102A7000DAA04FF4C871824B824ACDE90010824936
:102A8000824806F060FA824890F8670000F0020081
:102A900050B1D9A04FF4C871794B7A4ACDE90010F2
:102AA00079497A4806F04FFA7948B0F84000192879
:102AB00015DDD8A04FF4C871714B724ACDE90010F2
:102AC0007149724806F03FFA714890F8600040F092
:102AD00004006F4981F860001A20A1F840006C489A
:102AE000B0F84200192815DDCFA04FF4C871644B2F
:102AF000644ACDE900106449644806F024FA644849
:102B000090F8610040F00400614981F861001A20EA
:102B1000A1F842005E48B0F84400192815DDC7A0AE
:102B20004FF4C871564B574ACDE9001056495748E3
:102B300006F009FA564890F8620040F00400544943
:102B400081F862001A20A1F844005148B0F846000C
:102B5000192815DDBEA04FF4C871494B494ACDE98B
:102B600000104949494806F0EEF9494890F86300D9
:102B700040F00400464981F863001A20A1F846009D
:102B80004348B0F84800192815DDB6A04FF4C871C5
:102B90003B4B3C4ACDE900103B493C4806F0D3F999
:102BA0003B4890F8640040F00400394981F8640023
:102BB0001A20A1F848003648B0F84A00192815DD57
:102BC000AEA04FF4C8712E4B2E4ACDE900102E490D
:102BD0002E4806F0B8F92E4890F8650040F0040041
:102BE0002B4981F865001A20A1F84A002848B0F85E
:102BF0004C00192815DDA7A04FF4C871204B214ABD
:102C0000CDE900102049214806F09DF9204890F8B0
:102C1000660040F004001E4981F866001A20A1F801
:102C20004C001B48B0F84E00192815DD9FA04FF44A
:102C3000C871134B134ACDE900101349134806F02D
:102C400082F9134890F8670040F00400104981F8B9
:102C500067001A20A1F84E000D48B0F8500008286F
:102C600000DD2FE144E100004C65667446726F6E32
:102C700074486172644661756C7421200000000024
:102C8000F45C0020C4000020645B002000100140C0
:102C9000CC580020526967687446726F6E74486140
:102CA00072644661756C7421200000004C65667486
:102CB00052656172486172644661756C74212000CE
:102CC00052696768745265617248617264466175E1
:102CD0006C742120000000004C65667446726F6EB3
:102CE000745475726E486172644661756C7421200B
:102CF00000000000526967687446726F6E74547504
:102D0000726E486172644661756C74212000000027
:102D10004C656674526561725475726E4861726476
:102D20004661756C74212000526967687452656150
:102D3000725475726E486172644661756C742120BC
:102D4000000000004C65667446726F6E74456E63D9
:102D50006F6465724C6F737421200000526967685C
:102D60007446726F6E74456E636F6465724C6F73F8
:102D7000742120004C65667452656172456E636F04
:102D80006465724C6F73742120000000526967689B
:102D90007452656172456E636F6465724C6F7374D3
:102DA000212000004C65667446726F6E7454757213
:102DB0006E456E636F6465724C6F73742120000002
:102DC000526967687446726F6E745475726E456EA0
:102DD000636F6465724C6F73742120004C65667478
:102DE000526561725475726E456E636F6465724CA4
:102DF0006F73742120000000526967687452656126
:102E0000725475726E456E636F6465724C6F737445
:102E1000212000004C65667446726F6E7453554DE8
:102E20004C4F535421200000526967687446726FFA
:102E30006E7453554D4C4F53542120004C656674AD
:102E40005265617253554D4C4F5354212000000080
:102E500052696768745265617253554D4C4F5354B3
:102E6000212000004C65667446726F6E7454757252
:102E70006E53554D4C4F53542120000052696768E2
:102E80007446726F6E745475726E53554D4C4F5339
:102E9000542120004C656674526561725475726EDF
:102EA00053554D4C4F535421200000005269676820
:102EB00074526561725475726E53554D4C4F535434
:102EC00021200000F8A04FF4C871FE4BFE4ACDE966
:102ED0000010FE49FE4806F036F8FE4890F8600003
:102EE00040F00800FB4981F860000920A1F840008B
:102EF000F848B0F85200082815DDF7A04FF4C87163
:102F0000F04BF14ACDE90010F049F14806F01BF80A
:102F1000F04890F8610040F00800EE4981F8610047
:102F20000920A1F84200EB48B0F85400082815DD4C
:102F3000F0A04FF4C871E34BE34ACDE90010E34938
:102F4000E34806F000F8E34890F8620040F008001B
:102F5000E04981F862000920A1F84400DD48B0F89A
:102F60005600082815DDEAA04FF4C871D54BD64AA3
:102F7000CDE90010D549D64805F0E5FFD54890F8D1
:102F8000630040F00800D34981F863000920A1F8EC
:102F90004600D048B0F85800082815DDE3A04FF4EB
:102FA000C871C84BC84ACDE90010C849C84805F0E7
:102FB000CAFFC84890F8640040F00800C54981F88D
:102FC00064000920A1F84800C248B0F85A00082857
:102FD00015DDDEA04FF4C871BA4BBB4ACDE9001035
:102FE000BA49BB4805F0AFFFBA4890F8650040F019
:102FF0000800B84981F865000920A1F84A00B548E1
:10300000B0F85C00082815DDD8A04FF4C871AD4BAE
:10301000AD4ACDE90010AD49AD4805F094FFAD488B
:1030200090F8660040F00800AA4981F8660009207F
:10303000A1F84C00A748B0F85E00082815DDD3A021
:103040004FF4C8719F4BA04ACDE900109F49A0489A
:1030500005F079FF9F4890F8670040F008009D490F
:1030600081F867000920A1F84E009A4890F8BC0149
:1030700050B1CEA04FF4C871924B934ACDE90010E5
:103080009249934805F05FFF924890F86000D8B9E4
:10309000904890F86200B8B98E4890F8610098B9ED
:1030A0008C4890F8630078B98A4890F8640058B961
:1030B000884890F8660038B9864890F8650018B9D5
:1030C000844890F8670030B11820824981F89C014B
:1030D0000E200BF0CEFA1CBD86B09DF814000590B2
:1030E00000207C4981F8F90105AA0021B448006854
:1030F0000EF09EF9B3A04FF4C871724B724ACDE93D
:1031000000107249724805F01EFF31E205AA002145
:10311000AB4800680EF076F805AA0021A8480068C0
:103120000EF086F9FFF7EBFAFFF7BAFA694890F864
:10313000F90107287BD2DFE800F0043943587B7A95
:10314000B500A448FEF786F8624890F8BD01012852
:1031500004D19FEDA10A06F0E7F908E05D4890F878
:10316000BD01022803D19FED9D0A06F0DDF99C48C0
:10317000FEF770F806F003FA9948FEF76BF80024A2
:103180000AE006F039FE9748FEF764F806F0B6F953
:103190009448FEF75FF8641C022CF2DB9248FEF7BD
:1031A00059F801204B4981F8F901E0E103F0D1FF22
:1031B00003F016FC18B10220464981F8F901D6E166
:1031C0008448FEF747F806F0D5FC8548FEF742F83C
:1031D00006F046FB8548FEF73DF803203D4981F89F
:1031E000F9017C48FEF736F8C1E18148006820B952
:1031F0009FED800A09F038F913E07D480068322815
:1032000004D19FED7D0A09F02FF90AE078480068A3
:10321000642806DB00207649086004202D4981F8E7
:10322000F90173480068401C714908609FE19DE105
:103230006848FEF70FF8002412E0F2EE040AB2EE3E
:10324000040A09F096F86648FEF704F8DFED6B0A09
:103250009FED6A0A09F08DF86148FDF7FBFF641CD9
:10326000022CEADBDFED5D0A9FED5C0A09F081F8D4
:103270005848FDF7EFFF00240AE00AF075F85948B6
:10328000FDF7E8FF09F05EFC5648FDF7E3FF641C1C
:10329000022CF2DB0AF060F85448FDF7DBFF09F07E
:1032A0005DFCADE0D1E000004C65667446726F6E67
:1032B00074434F4E54494E494F55534C4F5354212C
:1032C00020000000F45C0020C4000020645B0020AB
:1032D00000100140CC580020526967687446726F34
:1032E0006E74434F4E54494E494F55534C4F5354AF
:1032F000212000004C65667452656172434F4E5444
:10330000494E494F55534C4F535421200000000063
:10331000526967687452656172434F4E54494E4911
:103320004F55534C4F535421200000004C65667498
:1033300046726F6E745475726E434F4E54494E49C7
:103340004F55534C4F535421200000005269676879
:103350007446726F6E745475726E434F4E54494E7C
:10336000494F55534C4F5354212000004C6566740F
:10337000526561725475726E434F4E54494E494FB7
:1033800055534C4F53542120000000005269676888
:1033900074526561725475726E434F4E54494E4972
:1033A0004F55534C4F53542120000000447269760E
:1033B000657243414E4275734661696C212000007D
:1033C0000C000020776865656C20636865636B217D
:1033D0000D0A0000FF7D56030000B4C2000000008B
:1033E000FFBC0105FF245602FF3EAB01FF79030A33
:1033F000280000209A99993ECDCC4C3E0000BCC1DB
:10340000FE48FDF727FF09F095FBFD48FDF722FF79
:1034100009F097F8FA48FDF71DFF04F0B3FFF948EB
:1034200090F8BD01012803D10E200BF075F907E0DB
:10343000F44890F8BD01022802D10E200BF0C6F826
:103440000620F04981F8F90191E004F0DEFEDFED9D
:10345000EE0A20EE200ABDEEC00A10EE104A04F07B
:10346000E6FEBDEEC00A10EE105A04F0DCFEBDEE22
:10347000C00A10EE106AE5A0CDE90265049401903F
:103480004FF4C870E44BE54AE5490090E54805F083
:103490005AFDE54890ED010ABDEEC00AD0ED000AE4
:1034A000FDEEE00AE1A04FF4C871CDE90010CDEDCA
:1034B000020A8DED030AD84BD84AD949D94805F0FC
:1034C00042FDD94890ED030ABDEEC00AD0ED020AD4
:1034D000FDEEE00AD8A04FF4C871CDE90010CDEDA3
:1034E000020A8DED030ACC4BCC4ACD49CD4805F0FC
:1034F0002AFDCD4890ED050ABDEEC00AD0ED040AC4
:10350000FDEEE00ACCA04FF4C871CDE90010CDED7E
:10351000020A8DED030AC04BC04AC149C14805F0FB
:1035200012FDC14890ED070ABDEEC00AD0ED060AB3
:10353000FDEEE00AC0A04FF4C871CDE90010CDED5A
:10354000020A8DED030AB44BB44AB549B54805F0FB
:10355000FAFCAFF284104FF4C871AF4BAF4ACDE91B
:103560000010AF49AF4805F0EEFC00E000BF00BF1F
:10357000CCE52DED028B84B01FED680AB0EE408AD9
:103580001FED6A0AF0EE408A0020019002909DF83B
:103590000C00039003AA0021A94800680DF048FF21
:1035A00040E003AA0021A74800680DF02BFE03AA03
:1035B0000021A34800680DF025FE03AA0021A048C1
:1035C00000680DF035FF04F042FE8DED010ACDEDEF
:1035D000020ADDED010A60EEA00A9DED021ADDEDA2
:1035E000021A41EE210AB0EE600A13F0CAFCB0EEF6
:1035F000408A9FED950AB4EEC08AF1EE10FA10DD14
:103600009DED011AF0EE410A9DED021AB0EE410A5D
:1036100012F0E4FADFED8D0A20EE200AF0EE408A87
:1036200000E000BFBDE700B58DB008F0BCFB7549F8
:103630000C9091F89C1186A24FF4C873CDE900322A
:10364000CDE90210744B754A7549764805F07BFC4C
:103650006C4890ED020ABDEEC00AD0ED000AFDEE06
:10366000E00A7EA04FF4C871CDE90010CDED020A4A
:103670008DED030A684B694A69496A4805F063FCA5
:10368000604890ED030AF2EE040A20EE200ABDEE37
:10369000C00AD0ED010AB2EE041A60EE810AFDEE16
:1036A000E00A65A04FF4C871CDE90010CDED020A23
:1036B0008DED030A584B594A59495A4805F043FCC5
:1036C000504890ED060ABDEEC00AD0ED040AFDEEAA
:1036D000E00A59A04FF4C871CDE90010CDED020AFF
:1036E0008DED030A4C4B4D4A4D494E4805F02BFCDD
:1036F000444890ED070AF2EE040A20EE200ABDEEDF
:10370000C00AD0ED050AB2EE041A60EE810AFDEEA1
:10371000E00A49A04FF4C871CDE90010CDED020ACE
:103720008DED030A3C4B3D4A3D493E4805F00BFCFC
:10373000344890ED0A0ABDEEC00AD0ED080AFDEE4D
:10374000E00A49A04FF4C871CDE90010CDED020A9E
:103750008DED030A304B314A3149324805F0F3FB15
:10376000284890ED0B0AF2EE040A20EE200ABDEE86
:10377000C00AD0ED090AB2EE041A60EE810AFDEE2D
:10378000E00A2DA04FF4C871CDE90010CDED020A7A
:103790008DED030A204B214A2149224805F0D3FB35
:1037A000184890ED0E0ABDEEC00AD0ED0C0AFDEEF1
:1037B000E00A21A04FF4C871CDE90010CDED020A56
:1037C0008DED030A144B154A1549164805F0BBFB4D
:1037D0000C4890ED0F0AF2EE040A20EE200ABDEE2E
:1037E000C00AD0ED0D0AB2EE041A60EE810AFDEEB9
:1037F000E00A11A04FF4C8713CE00000FF79030A11
:10380000FFBC0105CC5800200000C84250202564B0
:103810002025642025642000F45C0020C4000020E2
:10382000645B002000100140005B00204C202564F8
:10383000202564200000000025642025642000006D
:1038400010000020140000200AD7233CE12E65421E
:103850002564205420256420000000006C6620258B
:1038600064202564200000006C72202564202564FB
:1038700020000000CDE90010CDED020A8DED030A15
:10388000FC4BFD4AFD49FE4805F05DFBFD4890ED0F
:10389000620ABDEEC00AD0ED610AFDEEE00AFAA0B0
:1038A0004FF4C871CDE90010CDED020A8DED030A89
:1038B000F04BF14AF149F24805F045FB04F0A5FC54
:1038C0005FED2F0A20EE200ABDEEC00A8DED0C0A36
:1038D00004F0ADFCBDEEC00A8DED0B0A04F0A3FCB4
:1038E000BDEEC00A8DED0A0A9DED0C0ADDED0B0A56
:1038F0009DED0A1AE7A001908DED021ACDED030AA5
:103900008DED040A4FF4C870DA4BDB4ADB490090B6
:10391000DB4805F018FB04F096FC5FED450A20EE4D
:10392000200ABDEEC00A8DED080A04F090FC8DED72
:103930000B0ACDED0C0A9DED0C0ABDEEC00A8DED13
:10394000070A04F084FC8DED090ACDED0A0A9DED0D
:10395000090ABDEEC00A8DED060A9DED080ADDEDEF
:10396000070A9DED061ACEA001908DED021ACDED4D
:10397000030A8DED040A4FF4C870BE4BBE4ABF491E
:103980000090BF4805F0DFFABE4890ED280ABDEE72
:10399000C00AD0ED260AFDEEE00A90ED251ABDEE34
:1039A000C11AC2A001908DED021ACDED030A8DED72
:1039B000040A4FF4C870AF4BAF4AB0490090B0480A
:1039C00005F0C1FAAF4890ED2D0ABDEEC00AD0ED6A
:1039D0002B0AFDEEE00A90ED2A1ABDEEC11AB7A03F
:1039E00001908DED021ACDED030A8DED040A4FF41E
:1039F000C870A04BA04AA1490090A14805F0A3FAC5
:103A0000A04890F8980100EE100AB8EE400AF2EED5
:103A1000020A20EE200AFDEEC00A9A4890F89901A9
:103A2000984991ED4B0A1FED881A20EE010ABDEE70
:103A3000C00A91ED4A1ABDEEC11A8DED031A8DED43
:103A4000040A0590CDED060A084690ED480ABDEE41
:103A5000C00A9EA04FF4C871CDE900108DED020A96
:103A6000844B854A8549864805F06DFA854890ED76
:103A7000410ADFED9B0A80EE201A9FED9A0A21EEA3
:103A8000000A8DED010A019814F0F4FDCDE9020160
:103A90009DED020B13F00CF98DED060B7948D0F873
:103AA0000001039014F0E6FDCDE904019DED060B45
:103AB00053EC102B9DED040B51EC100B14F0E4FAB9
:103AC000CDE908019DED080B51EC100B14F018FA2C
:103AD0000C906C4890ED410ADFED810A80EE201ACF
:103AE0009FED800A21EE000A8DED010A019814F085
:103AF000C1FDCDE902019DED020B12F099F98DEDAA
:103B0000060B6048D0F80001039014F0B3FDCDE936
:103B100004019DED060B53EC102B9DED040B51ECB5
:103B2000100B14F0B1FACDE908019DED080B51EC32
:103B3000100B14F0E5F90B90524890ED5B0A5FED25
:103B4000CE0A20EE200AFDEEC00A90ED420AB2EE47
:103B5000041A20EE010ABDEEC00A90ED4C1A5FED8A
:103B6000D61A21EE211ABDEEC11A0C9807908DEDE0
:103B7000081A8DED090ACDED0A0A42480B9990ED1D
:103B80003C0ABDEEC00AD0ED3B0AFDEEE00A90ED26
:103B90003F1ABDEEC11A8DED031ACDED040A8DED6D
:103BA000050A069190ED3E0ABDEEC00A4EA04FF404
:103BB000C871CDE900108DED020A2E4B2E4A2F4917
:103BC0002F4805F0C0F92F48D0ED440A9FED441A64
:103BD00080EE810ADFED430A20EE200A8DED010A16
:103BE000019814F047FDCDE902019DED020B13F0A1
:103BF0005FF88DED060B2348D0F80C01039014F00C
:103C000039FDCDE904019DED060B53EC102B9DED24
:103C1000040B51EC100B14F037FACDE908019DEDBF
:103C2000080B51EC100B14F06BF90C901548D0ED0B
:103C3000440A9FED2B1A80EE810ADFED2A0A20EE5E
:103C4000200A8DED010A019814F014FDCDE902015E
:103C50009DED020B12F0ECF88DED060B0948D0F843
:103C60000C01039014F006FDCDE904019DED060B57
:103C70004AE00000F45C0020C4000020645B0020E7
:103C800000100140CC58002063702025642025647A
:103C90002000000070202564202564202564200079
:103CA00025642025642025642000000076702025EE
:103CB00064202564202564200000000076742025FF
:103CC0006420256420256420000000003270202537
:103CD00064202564202564202564202564200000BC
:103CE00000003443DB0F4940762025642025642002
:103CF0002564202564202564202564202564202552
:103D0000642025642000000053EC102B9DED040B73
:103D100051EC100B14F0B8F9CDE908019DED080B3A
:103D200051EC100B14F0ECF80B90FEA24FF4C8739A
:103D3000DDE90B10CDE90032CDE90210FC4BFD4A64
:103D4000FD49FE4805F0FFF8FD4890ED380ABDEE4C
:103D5000C00AD0ED370AFDEEE00AAFF284004FF45E
:103D6000C871CDE90010CDED020A8DED030AF04BCC
:103D7000F04AF149F14805F0E6F8F14890F8BD0144
:103D8000012812D1EE4890ED690ABDEEC00AEDA0FF
:103D90004FF4C871CDE900108DED020AE44BE54AFD
:103DA000E549E64805F0CFF816E0E54890F8BD0192
:103DB000022811D1E24890ED6A0ABDEEC00AE3A0E4
:103DC0004FF4C871CDE900108DED020AD84BD94AE5
:103DD000D949DA4805F0B7F808F0DFFDDFEDDD0A74
:103DE00020EE200ABDEEC00A8DED0C0ADDED0C1AA6
:103DF000D34890ED5C0ADFEDD70A20EE200AFDEEF5
:103E0000C00A90ED6E0A9FEDD41A20EE010ABDEEB5
:103E1000C00A90ED6D1A9FEDD02A21EE021ABDEE78
:103E2000C11A8DED051A8DED060ACDED070ACDED0F
:103E3000081A90ED6C0AB1EE400ADFEDC70A20EED9
:103E4000200ABDEEC00AD0ED6B0AB1EE601ADFEDBC
:103E5000C20A61EE200AFDEEE00AC0480078C0A167
:103E6000CDE90110CDED030A8DED040A4FF4C870C1
:103E7000AF4BB04AB0490090B04805F064F8B04884
:103E800090ED550ABDEEC00ABBA04FF4C871CDE954
:103E900000108DED020AA64BA64AA749A74805F0D7
:103EA00052F8A74890ED830ABDEEC00A9EA04FF4D9
:103EB000C871CDE900108DED020A9D4B9D4A9E49C7
:103EC0009E4805F040F89E4890F89C0117281FD1A5
:103ED0009B4890ED840ADFED9F0A20EE200ABDEE9C
:103EE000C00AD0ED850AB2EE041A60EE810AFDEE3A
:103EF000E00AA3A04FF4C871CDE90010CDED020A8D
:103F00008DED030A8A4B8B4A8B498C4805F01BF8D0
:103F10008B4890F89C01162816D1894890F83801F2
:103F2000874991ED4D0ABDEEC00AAFF254214FF41E
:103F3000C872CDE900218DED020A7D4B7D4A7E4994
:103F400003907E4804F0FFFF9048007889A14FF469
:103F5000C872774BCDE900210290764A76497748BE
:103F600004F0F1FF764890F8810182A14FF4C87205
:103F70006F4BCDE9002102906E4A6F496F4804F003
:103F8000E2FFAFF6B4304FF4C871694B694ACDE92E
:103F900000106949694804F0D6FF0DB000BD10B5A6
:103FA000674890F8BD01012808D19FED791ADFED2F
:103FB000790A9FED770A02F01AFC0CE0604890F84D
:103FC000BD01022807D19FED721ADFED730A9FED44
:103FD000700A02F00CFC10BD0EB59DF808000290AE
:103FE0000020574981F89C0132200DF0D7FE08F0DF
:103FF000B1FD08B9FFF7D3FF05F0C1FA05F07EFA6D
:10400000002430E0204604EBD0714910A4EB4101BC
:10401000012903D10E200AF087FA10E0484890F8F1
:10402000BD01012803D10E200AF076FB07E04448C9
:1040300090F8BD01022802D10E200AF0C7FA4048CC
:1040400090F8800101280AD154A04FF4C871384B70
:10405000384ACDE900103849384804F074FF32205E
:104060000DF09CFE641C1B2CCCDB0E200AF05CFACD
:1040700004F088F90021324880F8051280F808120F
:1040800080F8061280F8091200202D4981F80402F8
:1040900000212B4880F8071280F8001280F80112E6
:1040A0009FED3B0A80ED7F0A082140480EF0C4FBDB
:1040B0003F48FDF7CFF808213C480EF0BFFB2048F1
:1040C00090F8BD01012803D10E200AF025FB07E07E
:1040D0001B4890F8BD01022802D10E200AF076FAA2
:1040E000B7EE000A164880ED860A02AA0021314880
:1040F00000680DF09DF913E002AA00212D48006828
:104100000DF080F802AA00212A4800680DF090F90D
:1041100005F019FFFEF7F3FAFEF7C2FAFFF783FA8C
:10412000EAE700006F762025642025642000000067
:10413000F45C0020C4000020645B002000100140FB
:10414000CC58002042202564200000005220256425
:104150002000000000007A440000C8421C0000203B
:10416000672025642025642025642025642025649B
:1041700020256420256420005320256420000000B1
:10418000616420256420256420000000280F0020A1
:1041900000000000307A03433F174242534443611A
:1041A0007264204C6F7374210D0A000000080240F5
:1041B000FF3EAB010C0000202DE9FC4164270024E8
:1041C0000025002614E0FD48FDF744F81021FC48C6
:1041D0000EF018FB10B1601CC4B200E000242021D6
:1041E000F7480EF00FFB10B1681CC5B200E00025C7
:1041F000381EA7F10101CFB2E5D1502C00DB01261A
:10420000502D03DB0120EF4981F8F801002E5BD02F
:1042100008F05AF870B9ECA04FF4C871F04BF14AAD
:10422000CDE90010F049F14804F08DFE0821F04876
:104230000EF002FB9FEDEF0A08F016F93EE0EE48A3
:10424000FDF708F8FEF7DFF89FEDEA0A08F00CF931
:104250005FED313A1FED413A5FED332A1FED432AFE
:104260005FED351A1FED451A5FED370A1FED470A5E
:1042700001F0A8FF08F091FBF6EE080AB4EEE00AA0
:10428000F1EE10FA0CDDDD480078642804DD082129
:10429000D7480EF0D1FA03E00821D5480EF0CEFA47
:1042A000D6480078401CD549087008460078C821D7
:1042B00090FBF1F201FB1200D04908701021C048B8
:1042C0000EF0A0FA0028BAD1BE4890F8F8010128F3
:1042D00008D104F063F80D200DF066FC0C200DF001
:1042E00063FC02E014200DF058FABDE8FC8108B52B
:1042F000C34800F047FAC34800F044FAC24B1A46DC
:104300000121BF4800F073FCBF4B1A460221BC4894
:1043100000F06DFCBC4B1A460321B94800F067FC65
:10432000B94B1A460421B64800F061FCB748B84BB7
:104330001A4605210090B24800F0D7FCB348B44BB0
:104340001A4606210090AE4800F0CFFCAF48B04BB3
:104350001A4607210090AA4800F0C7FCAB48AC4BB6
:104360001A4608210090A64800F0BFFCA948430067
:104370001A4605210090A34800F0B7FCA548430069
:104380001A46042100909F4800F0AFFCA248A34BBE
:104390001A46022100909B4800F0A7FC9E489F4BC4
:1043A0001A4603210090974800F09FFC0121944891
:1043B00000F0F5F90221924800F0F1F9032190484C
:1043C00000F0EDF904218E4800F0E9F905218C4850
:1043D00000F0E5F906218A4800F0E1F90721884854
:1043E00000F0DDF90821864800F0D9F9052185485B
:1043F00000F0D5F90421834800F0D1F90221814869
:1044000000F0CDF903217F4800F0C9F908BD1CB5C3
:1044100010E07948FCF71EFF802169480EF0F2F9A0
:1044200028B17F480078401C7D49087002E00020D8
:104430007B4908707B4801780078401E794A1070EB
:104440000029E6D1764800780A280FDB02205D4972
:1044500081F8BD0174A04FF4C871614B614ACDE988
:1044600000106149614804F06EFD0EE001205549DD
:1044700081F8BD0170A04FF4C871594B594ACDE97C
:1044800000105949594804F05EFD4E4890F8BD01AE
:10449000012805D0022807D10E200AF097F804E081
:1044A0000E200AF039F900E000BF00BF1CBD08B5BE
:1044B0000020012340F24732632100909807FCF767
:1044C000CEFE012208214A48FDF71EFC00220221EF
:1044D0003B48FDF719FC002208213948FDF714FC80
:1044E000002210213648FDF70FFC0022202134481D
:1044F000FDF70AFC002240213148FDF705FC0022AF
:1045000080212F48FDF700FC002208214E48FDF7CE
:10451000FBFB002220214C48FDF7F6FB09F08BF94C
:1045200009F036FA9FED490A07F09EFF4FF4E1309B
:10453000FDF7A9FC4FF46120FDF7A8FD4FF46120C1
:10454000FDF7F8FC4FF49640FDF7F6FD4FF46123BC
:104550003F4A2349254804F093FA4FF40070431072
:104560003C4A4FF4FA710090254801F097FB402037
:104570002023384A4FF4FA710090224801F08EFB54
:104580003221012004F0BCFD08BD10B500BF4FF47E
:10459000A0600EF059FCFFF78AFF2F48FCF75AFE87
:1045A000FFF735FFFFF7A3FE04F030FF03F008FF2D
:1045B000FFF702FEFF200DF0F7FA10BD7F8B080019
:1045C000000C0240CC58002053746565725265732C
:1045D000657454696D654F7574210D0A0000000003
:1045E000F45C0020C4000020645B00200010014047
:1045F00000080240CDCC4C3FBF45040034000020F1
:10460000006400400068004000E1F505809FD5008F
:10461000002F685940420F0080841E00404B4C0020
:104620002500002024000020436F75727449443A2D
:10463000524544210D0A0000436F75727449443A93
:10464000424C5545210D0A00001002407593D83E9A
:10465000DF1F0008000402407FB92A0010B500BF28
:1046600000200CF03DFD3549086000200CF038FDBD
:104670003349086000200CF033FD32490860002007
:104680000CF02EFD304908600B23304A00213048E1
:104690000CF0CFFF04460D232E4A00212E480CF0CB
:1046A000C8FF04460C232D4A00212D480CF0C1FF01
:1046B000044614232B4A00212B480CF0BAFF044671
:1046C0000E232A4A00212A480CF0B3FF044610BDED
:1046D00010B528480068401C264908600846006854
:1046E000B42809DC244890ED000AF0EE000A30EE10
:1046F000200A80ED000A0DE01E480068B0F5B47F86
:1047000008DC1D4890ED000AF0EE000A30EE600A69
:1047100080ED000A174800684FF4B47190FBF1F285
:1047200001FB1200134908609FED141A1248D0EDE6
:10473000000A9FED130A02F05AF810BD0C00002089
:10474000100000201400002018000020C8180020CD
:104750008B450008C8280020D93F0008C838002031
:1047600073350008C8480020D9300008C858002018
:10477000C72400082C0000203000002000000000AA
:1047800000007A441CB50446FE4903C9CDE9000186
:1047900008236A460021204601F058FC1CBDF0B5F4
:1047A00087B004460D46F749083103C9CDE9050134
:1047B00005F540700090019000208DF808008DF8FC
:1047C000090008208DF80A000598C0B28DF80B008A
:1047D0000598010A8DF80C100598010C8DF80D1044
:1047E0000598000E8DF80E000698C1B28DF80F10D6
:1047F0000698010A8DF810100698010C8DF811101A
:104800000698000E8DF81200694620460FF090FDC4
:10481000074600261DE0701C86B24EF660208642D8
:1048200017DDD948844208D1D84890F8BC0140F03F
:104830000100D64981F8BC010AE0D548844207D17D
:10484000D24890F8BC0140F00200D04981F8BC0188
:1048500005E0394620460FF003FE0128DBD100BFFA
:1048600007B0F0BDF0B587B004460D46C54910311C
:1048700003C9CDE9050105F54070009001900020C5
:104880008DF808008DF8090008208DF80A000598B9
:10489000C0B28DF80B000598010A8DF80C10059830
:1048A000010C8DF80D100598000E8DF80E0006987D
:1048B000C1B28DF80F100698010A8DF810100698F5
:1048C000010C8DF811100698000E8DF81200694643
:1048D00020460FF02DFD074600261DE0701C86B215
:1048E0004EF66020864217DDA748844208D1A748CB
:1048F00090F8BC0140F00100A44981F8BC010AE035
:10490000A348844207D1A14890F8BC0140F00200BE
:104910009E4981F8BC0105E0394620460FF0A0FD14
:104920000128DBD100BF07B0F0BD2DE9F0478AB008
:1049300005460E4690469946924B2833D3E901022C
:104940001968DB6807AC0DC4069106F5407001904C
:10495000029000208DF80C008DF80D0008208DF8D5
:104960000E00CDF81C80CDF82490002462E006A84B
:1049700010F834008DF80F0006A830F83400010A52
:104980008DF8101006A850F83400010C8DF81110A5
:1049900006A850F83400000E8DF8120006A800EBAF
:1049A000C40001798DF8131006A800EBC4008088BC
:1049B000010A8DF8141006A800EBC4004068010C31
:1049C0008DF8151006A800EBC4004068000E8DF8A5
:1049D000160001A928460FF0ABFC07464FF0000A6D
:1049E0001FE00AF101001FFA80FA4EF660208245AE
:1049F00017DD6548854208D1644890F8BC0140F055
:104A00000100624981F8BC010AE06148854207D192
:104A10005E4890F8BC0140F002005C4981F8BC019E
:104A200005E0394628460FF01BFD0128D9D100BF0B
:104A3000601CC4B2022C9ADB0AB0BDE8F0872DE9F5
:104A4000F04188B004460D4616464E49203103C950
:104A5000CDE9060105F540700190029000208DF827
:104A60000C008DF80D0008208DF80E0007960698B2
:104A7000C0B28DF80F000698010A8DF81010069844
:104A8000010C8DF811100698000E8DF81200079891
:104A9000C1B28DF813100798010A8DF81410079809
:104AA000010C8DF815100798000E8DF8160001A95D
:104AB00020460FF03DFC804600271DE0781C87B2A1
:104AC0004EF66020874217DD2F48844208D12F48D8
:104AD00090F8BC0140F001002C4981F8BC010AE0CB
:104AE0002B48844207D1294890F8BC0140F00200CD
:104AF000264981F8BC0105E0414620460FF0B0FC94
:104B00000128DBD100BF08B0BDE8F0812DE9F041FC
:104B100088B004460D4616461A49183103C9CDE936
:104B2000060105F540700190029000208DF80C0000
:104B30008DF80D0008208DF80E0007960698C0B27B
:104B40008DF80F000698010A8DF810100698010CD8
:104B50008DF811100698000E8DF812000798C1B25A
:104B60008DF813100798010A8DF814100798010C9E
:104B70008DF815100798000E8DF8160001A9204633
:104B800008E000005C88010800640040CC58002068
:104B9000006800400FF0CCFB804600271DE0781C29
:104BA00087B24EF66020874217DDFE48844208D166
:104BB000FD4890F8BC0140F00100FB4981F8BC01C0
:104BC0000AE0FA48844207D1F74890F8BC0140F067
:104BD0000200F54981F8BC0105E0414620460FF08E
:104BE0003FFC0128DBD100BF08B0BDE8F0812DE912
:104BF000F04104460D4616461F460222294620462D
:104C0000FFF784FF002229462046FFF718FF3B46A6
:104C1000324629462046FFF788FEBDE8F0812DE99F
:104C2000F04188B004460D461646E14903C9CDE976
:104C3000060105F540700190029000208DF80C00EF
:104C40008DF80D0008208DF80E0007960698C0B26A
:104C50008DF80F000698010A8DF810100698010CC7
:104C60008DF811100698000E8DF812000798C1B249
:104C70008DF813100798010A8DF814100798010C8D
:104C80008DF815100798000E8DF8160001A9204622
:104C90000FF04EFB804600271DE0781C87B24EF6D1
:104CA0006020874217DDBF48844208D1BE4890F893
:104CB000BC0140F00100BC4981F8BC010AE0BB48DE
:104CC000844207D1B84890F8BC0140F00200B649D0
:104CD00081F8BC0105E0414620460FF0C1FB0128E8
:104CE000DBD100BF08B0BDE8F0812DE9F0410446FA
:104CF0000D4616461F46DDF8188005222946204637
:104D0000FFF704FF002229462046FFF798FE3B46A6
:104D1000324629462046FFF708FE424629462046ED
:104D2000FFF77DFFBDE8F0812DE9F04188B0044632
:104D30000D4616469E49083103C9CDE9060105F521
:104D400040700190029000208DF80C008DF80D004D
:104D500008208DF80E0007960698C0B28DF80F0057
:104D60000698010A8DF810100698010C8DF81110A4
:104D70000698000E8DF812000798C1B28DF8131036
:104D80000798010A8DF814100798010C8DF815107A
:104D90000798000E8DF8160001A920460FF0C8FAFA
:104DA000804600271DE0781C87B24EF660208742BF
:104DB00017DD7C48844208D17B4890F8BC0140F064
:104DC0000100794981F8BC010AE07848844207D1A2
:104DD000754890F8BC0140F00200734981F8BC01AD
:104DE00005E0414620460FF03BFB0128DBD100BF28
:104DF00008B0BDE8F08170B504460D46164632464F
:104E000029462046FFF790FF70BD2DE9F04387B09B
:104E100004460D461646994600200590069005F575
:104E200040700090019000208DF808008DF8090076
:104E300008208DF80A001EB944F25010059004E0D5
:104E4000012E02D145F250200590CDF8189005981A
:104E5000C0B28DF80B000598010A8DF80C1005986A
:104E6000010C8DF80D100598000E8DF80E000698B7
:104E7000C1B28DF80F100698010A8DF8101006982F
:104E8000010C8DF811100698000E8DF8120069467D
:104E900020460FF04DFA804600271DE0781C87B2AF
:104EA0004EF66020874217DD3E48844208D13E48D6
:104EB00090F8BC0140F001003B4981F8BC010AE0D8
:104EC0003A48844207D1384890F8BC0140F00200CB
:104ED000354981F8BC0105E0414620460FF0C0FA93
:104EE0000128DBD100BF07B0BDE8F0832DE9F04118
:104EF00004460D4616461F463B4632462946204686
:104F0000FFF783FFBDE8F0812DE9F0478AB0054641
:104F10000E4690469946264B303BD3E9010219686C
:104F2000DB6807AC0DC4069106F540700190029055
:104F300000208DF80C008DF80D0008208DF80E0073
:104F4000CDF81C80CDF8249000246BE006A810F862
:104F500034008DF80F0006A830F83400010A8DF8EF
:104F6000101006A850F83400010C8DF8111006A896
:104F700050F83400000E8DF8120006A800EBC400B3
:104F800001798DF8131006A800EBC4008088010A8F
:104F90008DF8141006A800EBC4004068010C8DF8D1
:104FA000151007E000640040CC5800200068004065
:104FB000C488010806A800EBC4004068000E8DF804
:104FC000160001A928460FF0B3F907464FF0000A72
:104FD0001FE00AF101001FFA80FA4EF660208245B8
:104FE00017DDFB48854208D1FA4890F8BC0140F033
:104FF0000100F84981F8BC010AE0F748854207D171
:10500000F44890F8BC0140F00200F24981F8BC017C
:1050100005E0394628460FF023FA0128D9D100BF10
:10502000601CC4B2022C91DB0AB0BDE8F0872DE908
:10503000F0478AB005460E4690469946E74BD3E9BD
:1050400001021968DB6807AC0DC4069106F54070D3
:105050000190029000208DF80C008DF80D000820C2
:105060008DF80E00CDF81C80CDF82490002462E06D
:1050700006A810F834008DF80F0006A830F83400A8
:10508000010A8DF8101006A850F83400010C8DF8B4
:10509000111006A850F83400000E8DF8120006A872
:1050A00000EBC40001798DF8131006A800EBC400D2
:1050B0008088010A8DF8141006A800EBC40040682F
:1050C000010C8DF8151006A800EBC4004068000E16
:1050D0008DF8160001A928460FF02AF907464FF06F
:1050E000000A1FE00AF101001FFA80FA4EF6602064
:1050F000824517DDB648854208D1B64890F8BC0114
:1051000040F00100B34981F8BC010AE0B248854291
:1051100007D1B04890F8BC0140F00200AD4981F8D9
:10512000BC0105E0394628460FF09AF90128D9D18B
:1051300000BF601CC4B2022C9ADB0AB0BDE8F08745
:105140002DE9F0478AB005460E4690469946A34B96
:105150001033D3E901021968DB6807AC0DC406916E
:1051600006F540700190029000208DF80C008DF83B
:105170000D0008208DF80E00CDF81C80CDF824908D
:10518000002462E006A810F834008DF80F0006A88D
:1051900030F83400010A8DF8101006A850F83400D9
:1051A000010C8DF8111006A850F83400000E8DF88F
:1051B000120006A800EBC40001798DF8131006A8B0
:1051C00000EBC4008088010A8DF8141006A800EBDB
:1051D000C4004068010C8DF8151006A800EBC4004F
:1051E0004068000E8DF8160001A928460FF0A0F8BF
:1051F00007464FF0000A1FE00AF101001FFA80FA8B
:105200004EF66020824517DD7148854208D171480D
:1052100090F8BC0140F001006E4981F8BC010AE041
:105220006D48854207D16B4890F8BC0140F0020000
:10523000684981F8BC0105E0394628460FF010F9AD
:105240000128D9D100BF601CC4B2022C9ADB0AB07D
:10525000BDE8F087F0B587B004460D465F493031B0
:1052600003C9CDE9050105F54070009001900020CB
:105270008DF808008DF8090008208DF80A000598BF
:10528000C0B28DF80B000598010A8DF80C10059836
:10529000010C8DF80D100598000E8DF80E00069883
:1052A000C1B28DF80F100698010A8DF810100698FB
:1052B000010C8DF811100698000E8DF81200694649
:1052C00020460FF035F8074600261DE0701C86B218
:1052D0004EF66020864217DD3D48844208D13D48A5
:1052E00090F8BC0140F001003A4981F8BC010AE0A5
:1052F0003948844207D1374890F8BC0140F0020099
:10530000344981F8BC0105E0394620460FF0A8F881
:105310000128DBD100BF07B0F0BDF0B587B004466F
:105320000D462E49383103C9CDE9050105F5407018
:105330000090019000208DF808008DF809000820E9
:105340008DF80A000598C0B28DF80B000598010A87
:105350008DF80C100598010C8DF80D100598000EB5
:105360008DF80E000698C1B28DF80F100698010A4C
:105370008DF810100698010C8DF811100698000E8B
:105380008DF81200694620460EF0D2FF074600262F
:1053900026E0701C86B24EF66020864220DD0C4866
:1053A000844208D10B4890F8BC0140F00100094943
:1053B00081F8BC010AE00848844207D1054890F80A
:1053C000BC0140F00200034981F8BC010EE000007E
:1053D00000640040CC58002000680040A488010808
:1053E000394620460FF03CF80128D2D100BF07B063
:1053F000F0BDF0B587B004460D46FE4903C9CDE9BE
:10540000050105F540700090019000208DF808001E
:105410008DF8090008208DF80A000598C0B28DF8B3
:105420000B000598010A8DF80C100598010C8DF8F9
:105430000D100598000E8DF80E000698C1B28DF87B
:105440000F100698010A8DF810100698010C8DF8BF
:1054500011100698000E8DF81200694620460EF0D5
:1054600067FF074600261DE0701C86B24EF66020DE
:10547000864217DDE048844208D1E04890F8BC013C
:1054800040F00100DD4981F8BC010AE0DC488442BB
:1054900007D1DA4890F8BC0140F00200D74981F802
:1054A000BC0105E0394620460EF0DAFF0128DBD1C9
:1054B00000BF07B0F0BDF0B587B004460D46CD493A
:1054C000083103C9CDE9050105F540700090019050
:1054D00000208DF808008DF8090008208DF80A00DA
:1054E0000598C0B28DF80B000598010A8DF80C10D4
:1054F0000598010C8DF80D100598000E8DF80E0022
:105500000698C1B28DF80F100698010A8DF8101098
:105510000698010C8DF811100698000E8DF81200F7
:10552000694620460EF004FF074600261DE0701C69
:1055300086B24EF66020864217DDAF48844208D11D
:10554000AE4890F8BC0140F00100AC4981F8BC01C4
:105550000AE0AB48844207D1A84890F8BC0140F06B
:105560000200A64981F8BC0105E0394620460EF04C
:1055700077FF0128DBD100BF07B0F0BDF0B587B0E1
:1055800004460D469B49103103C9CDE9050105F5D7
:1055900040700090019000208DF808008DF80900FF
:1055A00008208DF80A000598C0B28DF80B00059808
:1055B000010A8DF80C100598010C8DF80D10059856
:1055C000000E8DF80E000698C1B28DF80F100698E7
:1055D000010A8DF810100698010C8DF8111006982C
:1055E000000E8DF81200694620460EF0A1FE074617
:1055F00000261DE0701C86B24EF66020864217DD44
:105600007D48844208D17D4890F8BC0140F00100FB
:105610007A4981F8BC010AE07948844207D1774889
:1056200090F8BC0140F00200744981F8BC0105E02B
:10563000394620460EF014FF0128DBD100BF07B029
:10564000F0BDF0B587B004460D466A49183103C96C
:10565000CDE9050105F540700090019000208DF81E
:1056600008008DF8090008208DF80A000598C0B2DE
:105670008DF80B000598010A8DF80C100598010CA7
:105680008DF80D100598000E8DF80E000698C1B229
:105690008DF80F100698010A8DF810100698010C6D
:1056A0008DF811100698000E8DF8120069462046FC
:1056B0000EF03EFE074600261DE0701C86B24EF638
:1056C0006020864217DD4C48844208D14B4890F850
:1056D000BC0140F00100494981F8BC010AE048489A
:1056E000844207D1454890F8BC0140F0020043498C
:1056F00081F8BC0105E0394620460EF0B1FE0128D4
:10570000DBD100BF07B0F0BDF0B587B004460D4651
:105710003849203103C9CDE9050105F540700090F5
:10572000019000208DF808008DF8090008208DF800
:105730000A000598C0B28DF80B000598010A8DF893
:105740000C100598010C8DF80D100598000E8DF8C1
:105750000E000698C1B28DF80F100698010A8DF858
:1057600010100698010C8DF811100698000E8DF897
:105770001200694620460EF0DBFD074600261DE0BC
:10578000701C86B24EF66020864217DD1A488442AD
:1057900008D11A4890F8BC0140F00100174981F87F
:1057A000BC010AE01648844207D1144890F8BC01B5
:1057B00040F00200114981F8BC0105E0394620465D
:1057C0000EF04EFE0128DBD100BF07B0F0BDF0B5F2
:1057D00087B004460D460749283103C9CDE90501C4
:1057E00005F540700090019000208DF808008DF8BC
:1057F000090007E0E488010800640040CC5800205C
:105800000068004008208DF80A000598C0B28DF8A5
:105810000B000598010A8DF80C100598010C8DF805
:105820000D100598000E8DF80E000698C1B28DF887
:105830000F100698010A8DF810100698010C8DF8CB
:1058400011100698000E8DF81200694620460EF0E1
:105850006FFD074600261DE0701C86B24EF66020E4
:10586000864217DDFC48844208D1FC4890F8BC0110
:1058700040F00100F94981F8BC010AE0F84884428F
:1058800007D1F64890F8BC0140F00200F34981F8D6
:10589000BC0105E0394620460EF0E2FD0128DBD1CF
:1058A00000BF07B0F0BDF0B587B004460D46ED4926
:1058B00003C9CDE9050105F5407000900190002075
:1058C0008DF808008DF8090008208DF80A00059869
:1058D000C0B28DF80B000598010A8DF80C100598E0
:1058E000010C8DF80D100598000E8DF80E0006982D
:1058F000C1B28DF80F100698010A8DF810100698A5
:10590000010C8DF811100698000E8DF812006946F2
:1059100020460EF00DFD074600261DE0701C86B2E5
:105920004EF66020864217DDCB48844208D1CB4832
:1059300090F8BC0140F00100C84981F8BC010AE0C0
:10594000C748844207D1C54890F8BC0140F0020026
:10595000C24981F8BC0105E0394620460EF080FDC1
:105960000128DBD100BF07B0F0BDF0B587B0044619
:105970000D46BC49083103C9CDE9050105F5407064
:105980000090019000208DF808008DF80900082093
:105990008DF80A000598C0B28DF80B000598010A31
:1059A0008DF80C100598010C8DF80D100598000E5F
:1059B0008DF80E000698C1B28DF80F100698010AF6
:1059C0008DF810100698010C8DF811100698000E35
:1059D0008DF81200694620460EF0AAFC0746002604
:1059E0001DE0701C86B24EF66020864217DD9A4894
:1059F000844208D1994890F8BC0140F001009749D1
:105A000081F8BC010AE09648844207D1934890F897
:105A1000BC0140F00200914981F8BC0105E0394623
:105A200020460EF01DFD0128DBD100BF07B0F0BD00
:105A3000F0B587B004460D468A49103103C9CDE957
:105A4000050105F540700090019000208DF80800D8
:105A50008DF8090008208DF80A000598C0B28DF86D
:105A60000B000598010A8DF80C100598010C8DF8B3
:105A70000D100598000E8DF80E000698C1B28DF835
:105A80000F100698010A8DF810100698010C8DF879
:105A900011100698000E8DF81200694620460EF08F
:105AA00047FC074600261DE0701C86B24EF66020BB
:105AB000864217DD6848844208D1684890F8BC01E6
:105AC00040F00100654981F8BC010AE06448844265
:105AD00007D1624890F8BC0140F002005F4981F8AC
